:100000000C9446000C9465000C9465000C946500FB
:100010000C9465000C9465000C9465000C946500CC
:100020000C9465000C9465000C9465000C946500BC
:100030000C9465000C941C010C9465000C946500F4
:100040000C9465000C9465000C9465000C9465009C
:100050000C9465000C9465000C9465000C9465008C
:100060000C9465000C9465000C9465000C9465007C
:100070000C9465000C9465000C9465000C9465006C
:100080000C9465000C9465000C94650011241FBE4F
:10009000CFEFD0E4DEBFCDBF11E0A0E0B1E0E6E0FD
:1000A000F6E000E00BBF02C007900D92A430B1074C
:1000B000D9F721E0A4E0B1E001C01D92AA30B20757
:1000C000E1F70E94B3020C9401030C94000040E09D
:1000D00050E00CC000002F5F3F4F02C020E030E036
:1000E000273063E03607B4F34F5F5F4F4817590777
:1000F000ACF30895289888B9299A0000299882E0DD
:1001000090E00E946700089581E00E947A000895BF
:10011000813120F481580E947A00089581550E940F
:100120007A00089584E690E00E94670088E30E94C8
:100130007A008AE090E00E94670086E00E947A00E0
:100140008AE090E00E9467008FE00E947A008AE0D7
:1001500090E00E94670081E00E947A008AE090E0CF
:100160000E9467000895289A88B9299A0000299862
:1001700081E090E00E9467000895EF92FF920F9354
:100180001F93CF93DF93182FEB010E9484000EC0C2
:1001900001E0010F812F0E9488007E018FEFE81A95
:1001A000F80A88810E94B300102FE701888181112D
:1001B000EFCFDF91CF911F910F91FF90EF900895B6
:1001C00060930001709301018093020190930301F9
:1001D00060930401709305018093060190930701D9
:1001E00008958BE0809381008DE790E090938900E3
:1001F0008093880082E080936F00109285001092B7
:1002000084008091000190910101A0910201B091C0
:1002100003018093040190930501A0930601B0931C
:1002200007018FB780688FBF0895109281000895ED
:1002300081E08093080108951F920F920FB60F92EC
:1002400011240BB60F922F933F934F935F936F93AD
:100250007F938F939F93AF93BF93EF93FF9380917F
:10026000040190910501A0910601B0910701019749
:10027000A109B1098093040190930501A09306019F
:10028000B0930701892B8A2B8B2B91F40E941801C4
:100290008091000190910101A0910201B0910301B0
:1002A0008093040190930501A0930601B093070188
:1002B000FF91EF91BF91AF919F918F917F916F913E
:1002C0005F914F913F912F910F900BBE0F900FBEFA
:1002D0000F901F901895442349F021E030E002C0B0
:1002E000220F331F6A95E2F7822B089521E030E058
:1002F00002C0220F331F6A95E2F7209582230895EA
:1003000021E030E002C0220F331F6A95E2F782231A
:10031000089540E064E08FEF0E946B0182B9000015
:1003200080B160E080950E948001811180C080B121
:1003300061E080950E94800181117BC080B162E004
:1003400080950E948001811176C080B163E0809524
:100350000E948001811171C040E065E08FEF0E9432
:100360006B0182B9000080B160E080950E9480013D
:10037000811165C080B161E080950E94800181118A
:1003800060C080B162E080950E94800181115BC0F5
:1003900080B163E080950E948001811156C040E0E9
:1003A00066E08FEF0E946B0182B9000080B160E0CF
:1003B00080950E94800181114AC080B161E08095E2
:1003C0000E948001811145C080B162E080950E9449
:1003D0008001811140C080B163E080950E9480015E
:1003E00081113BC040E067E08FEF0E946B0182B952
:1003F000000080B160E080950E94800181112FC0D3
:1004000080B161E080950E94800181112AC080B195
:1004100062E080950E948001811125C080B163E077
:1004200080950E9480018823F9F084E4089581E397
:10043000089584E3089587E308958AE2089582E3A6
:10044000089585E3089588E3089580E3089583E39C
:10045000089586E3089589E3089583E2089581E489
:10046000089582E4089583E408950F931F93CF9332
:10047000DF93B62FA72FF82FE92F022F132FD42F9A
:10048000C52F04C0062F172FD82FC92F6B2F7A2FF7
:100490008F2F9E2F202F312F4D2F5C2F0E94DF0298
:1004A000B02FA12FFD2FEC2F61157105810591054E
:1004B00049F7602F712F8D2F9C2FDF91CF911F91C6
:1004C0000F91089583E38093C4001092C50088E1E2
:1004D0008093C1008EE08093C20008958091C00097
:1004E000807208958091C000807408958091C0004A
:1004F0008078089504C08091C6008093090180919E
:10050000C0008823C4F308959091C00095FFFCCFEC
:100510008093C60008958091C0008823E4F78091FD
:10052000C6000895EAE7F0E08081866C8083089534
:1005300080ED80937C00089589EC80937C00089581
:100540008BEC80937C000895806E80937C00EAE7BA
:10055000F0E080818064808380917A0086FDFCCF0A
:1005600080917900089511B88FEF82B984B915B8D8
:1005700087B918B88AB91BB884E690E00E94670072
:100580000E9462020E9492020E948B0285B9813011
:1005900029F480E10E94A402C82F0DC0823029F402
:1005A00089E00E94A402C82F06C0833021F48BE0AA
:1005B0000E94A402C82F8C2F0E948402E5CFA1E2E2
:1005C0001A2EAA1BBB1BFD010DC0AA1FBB1FEE1FCD
:1005D000FF1FA217B307E407F50720F0A21BB30B18
:1005E000E40BF50B661F771F881F991F1A9469F794
:1005F00060957095809590959B01AC01BD01CF01F0
:060600000895F894FFCFFD
:0406060001000000EF
:00000001FF
