:100000000C9446000C9465000C9465000C946500FB
:100010000C9465000C9465000C9465000C946500CC
:100020000C9465000C9465000C9465000C946500BC
:100030000C9465000C9489010C9465000C94650087
:100040000C9465000C9465000C9465000C9465009C
:100050000C9465000C9465000C9465000C9465008C
:100060000C9465000C9465000C9465000C9465007C
:100070000C9465000C9465000C9465000C9465006C
:100080000C9465000C9465000C94650011241FBE4F
:10009000CFEFD0E4DEBFCDBF11E0A0E0B1E0E2E8F9
:1000A000F6E000E00BBF02C007900D92AE30B10742
:1000B000D9F721E0AEE0B1E001C01D92A831B2074E
:1000C000E1F70E94F2020C943F030C94000040E020
:1000D00050E00CC000002F5F3F4F02C020E030E036
:1000E000273063E03607B4F34F5F5F4F4817590777
:1000F000ACF308952898982F907F98B9299A00001A
:10010000299820E1829FC001112488B9299A000012
:10011000299882E090E00E946700089581E00E94A3
:100120007A000895813120F481580E947A00089560
:1001300081550E947A00089584E690E00E9467004D
:1001400088E20E947A0086E00E947A008FE00E9496
:100150007A0081E00E947A008AE090E00E946700C5
:100160000895289A982F907F98B9299A0000299885
:1001700020E1829FC001112488B9299A00002998A2
:1001800081E090E00E946700089580E40E947A0078
:100190008AE00E94B10081E40E947A008AE00E9415
:1001A000B10082E40E947A008AE00E94B10083E4F8
:1001B0000E947A0084E00E94B10084E40E947A00E8
:1001C00081E10E94B10085E40E947A0081E10E94F1
:1001D000B10086E40E947A008FE10E94B10087E4BA
:1001E0000E947A008FE10E94B1000895EF92FF9281
:1001F0000F931F93CF93DF93182FEB010E948E0074
:100200000EC001E0010F812F0E9492007E018FEF4E
:10021000E81AF80A88810E94B100102FE70188814E
:100220008111EFCFDF91CF911F910F91FF90EF9050
:10023000089583E38093C4001092C50088E1809301
:10024000C1008EE08093C20008958091C00080724A
:1002500008958091C000807408958091C0008078D6
:10026000089504C08091C600809313018091C0005E
:100270008823C4F308959091C00095FFFCCF80932C
:10028000C60008958091C0008823E4F78091C600DD
:100290000895EAE7F0E08081806C808308958062B1
:1002A00080937C00EAE7F0E0808180648083809125
:1002B0007A0086FDFCCF8091790008958BE08093D1
:1002C00081008DE790E0909389008093880082E020
:1002D00080936F001092850010928400809100013D
:1002E00090910101A0910201B091030180930E0150
:1002F00090930F01A0931001B09311018FB7806804
:100300008FBF089510928100089581E080931201BB
:1003100008951F920F920FB60F9211240BB60F92F1
:100320002F933F934F935F936F937F938F939F93FD
:10033000AF93BF93EF93FF9380910E0190910F01C4
:10034000A0911001B09111010197A109B109809309
:100350000E0190930F01A0931001B0931101892B0E
:100360008A2B8B2B91F40E94850180910001909142
:100370000101A0910201B091030180930E019093BD
:100380000F01A0931001B0931101FF91EF91BF9164
:10039000AF919F918F917F916F915F914F913F911D
:1003A0002F910F900BBE0F900FBE0F901F901895BE
:1003B0006093000170930101809302019093030107
:1003C00060930E0170930F018093100190931101BF
:1003D0000895F894F999FECF92BD81BD60BDFA9A57
:1003E000F99A84E090E00E94670078940895F89468
:1003F000F999FECF92BD81BDF89A789480B50895A1
:10040000CF93DF93D82FC62F813009F0C195CC232D
:100410002CF48DE20E94B100C19503C08BE20E94D2
:10042000B100D23039F0D33009F475C0D13009F0C1
:10043000AEC038C026E1C202C0011124CAE0D0E03B
:10044000BE010E941703CB01709315016093140144
:1004500064E670E00E94170380E3860F0E94B100FB
:100460008EE20E94B1008091140190911501BE01AD
:100470000E941703CB01BE010E941703805D0E94FA
:10048000B1008091140190911501BE010E941703E3
:10049000805D0E94B10086E50E94B10080E00E946C
:1004A000B1007AC026E1C202C00111249093150167
:1004B0008093140168EE73E00E94170380E3860FB7
:1004C0000E94B100809114019091150164E670E0E2
:1004D0000E941703CB01CAE0D0E0BE010E941703BF
:1004E000805D0E94B1008EE20E94B10080911401F3
:1004F00090911501BE010E941703CB01BE010E941D
:100500001703805D0E94B10086E50E94B10080E083
:100510000E94B10041C026E1C202C001112468EC72
:1005200070E00E94170370931501609314018EE22E
:100530000E94B100809114019091150164E670E071
:100540000E94170380E3860F0E94B100809114017E
:1005500090911501CAE0D0E0BE010E941703CB01C3
:10056000BE010E941703805D0E94B10080911401BA
:1005700090911501BE010E941703805D0E94B10099
:1005800086E50E94B10080E00E94B10005C064E0F1
:1005900071E081E00E94F600DF91CF9108951FBACB
:1005A00080E00E944F0191EC899F812D112482955A
:1005B0008695869583708F5F809316010E943B011C
:1005C0000E948E0081E00E9492000E94420180936E
:1005D0001701682F880F770B8091160190E00E9419
:1005E0000002089511B88FEF82B984B915B887B9A0
:1005F00018B88AB91BB864EF71E080E090E00E94FF
:10060000D8010E945E010E949C000E9419010E9474
:1006100049010E94C50082E0809316010E94CF022A
:10062000809112018823E1F310921201F7CF97FB1A
:10063000072E16F4009407D077FD09D00E942B03F3
:1006400007FC05D03EF4909581959F4F08957095D5
:1006500061957F4F0895AA1BBB1B51E107C0AA1FDC
:10066000BB1FA617B70710F0A61BB70B881F991F53
:100670005A95A9F780959095BC01CD010895F894FD
:02068000FFCFAA
:0E0682000100000073686974746572730000F3
:00000001FF
